{
  "_format": "hh-sol-artifact-1",
  "contractName": "SBT",
  "sourceName": "contracts/SBTFactory.sol",
  "abi": [
    {
      "inputs": [
        {
          "internalType": "uint256",
          "name": "_totalSupply",
          "type": "uint256"
        },
        {
          "internalType": "string",
          "name": "_name",
          "type": "string"
        },
        {
          "internalType": "string",
          "name": "_symbol",
          "type": "string"
        },
        {
          "internalType": "string",
          "name": "_baseTokenURI",
          "type": "string"
        },
        {
          "internalType": "address",
          "name": "_sbtFactory",
          "type": "address"
        }
      ],
      "stateMutability": "nonpayable",
      "type": "constructor"
    },
    {
      "anonymous": false,
      "inputs": [
        {
          "indexed": true,
          "internalType": "address",
          "name": "owner",
          "type": "address"
        },
        {
          "indexed": true,
          "internalType": "address",
          "name": "approved",
          "type": "address"
        },
        {
          "indexed": true,
          "internalType": "uint256",
          "name": "tokenId",
          "type": "uint256"
        }
      ],
      "name": "Approval",
      "type": "event"
    },
    {
      "anonymous": false,
      "inputs": [
        {
          "indexed": true,
          "internalType": "address",
          "name": "owner",
          "type": "address"
        },
        {
          "indexed": true,
          "internalType": "address",
          "name": "operator",
          "type": "address"
        },
        {
          "indexed": false,
          "internalType": "bool",
          "name": "approved",
          "type": "bool"
        }
      ],
      "name": "ApprovalForAll",
      "type": "event"
    },
    {
      "anonymous": false,
      "inputs": [
        {
          "indexed": true,
          "internalType": "address",
          "name": "from",
          "type": "address"
        },
        {
          "indexed": true,
          "internalType": "address",
          "name": "to",
          "type": "address"
        },
        {
          "indexed": true,
          "internalType": "uint256",
          "name": "tokenId",
          "type": "uint256"
        }
      ],
      "name": "Transfer",
      "type": "event"
    },
    {
      "inputs": [
        {
          "internalType": "address",
          "name": "to",
          "type": "address"
        },
        {
          "internalType": "uint256",
          "name": "tokenId",
          "type": "uint256"
        }
      ],
      "name": "approve",
      "outputs": [],
      "stateMutability": "nonpayable",
      "type": "function"
    },
    {
      "inputs": [
        {
          "internalType": "address",
          "name": "owner",
          "type": "address"
        }
      ],
      "name": "balanceOf",
      "outputs": [
        {
          "internalType": "uint256",
          "name": "",
          "type": "uint256"
        }
      ],
      "stateMutability": "view",
      "type": "function"
    },
    {
      "inputs": [],
      "name": "baseTokenURI",
      "outputs": [
        {
          "internalType": "string",
          "name": "",
          "type": "string"
        }
      ],
      "stateMutability": "view",
      "type": "function"
    },
    {
      "inputs": [],
      "name": "cap",
      "outputs": [
        {
          "internalType": "uint256",
          "name": "",
          "type": "uint256"
        }
      ],
      "stateMutability": "view",
      "type": "function"
    },
    {
      "inputs": [],
      "name": "currentTokenId",
      "outputs": [
        {
          "internalType": "uint256",
          "name": "",
          "type": "uint256"
        }
      ],
      "stateMutability": "view",
      "type": "function"
    },
    {
      "inputs": [
        {
          "internalType": "uint256",
          "name": "tokenId",
          "type": "uint256"
        }
      ],
      "name": "getApproved",
      "outputs": [
        {
          "internalType": "address",
          "name": "",
          "type": "address"
        }
      ],
      "stateMutability": "view",
      "type": "function"
    },
    {
      "inputs": [
        {
          "internalType": "address",
          "name": "owner",
          "type": "address"
        },
        {
          "internalType": "address",
          "name": "operator",
          "type": "address"
        }
      ],
      "name": "isApprovedForAll",
      "outputs": [
        {
          "internalType": "bool",
          "name": "",
          "type": "bool"
        }
      ],
      "stateMutability": "view",
      "type": "function"
    },
    {
      "inputs": [
        {
          "internalType": "address",
          "name": "_account",
          "type": "address"
        }
      ],
      "name": "mint",
      "outputs": [
        {
          "internalType": "uint256",
          "name": "",
          "type": "uint256"
        }
      ],
      "stateMutability": "nonpayable",
      "type": "function"
    },
    {
      "inputs": [],
      "name": "name",
      "outputs": [
        {
          "internalType": "string",
          "name": "",
          "type": "string"
        }
      ],
      "stateMutability": "view",
      "type": "function"
    },
    {
      "inputs": [
        {
          "internalType": "uint256",
          "name": "tokenId",
          "type": "uint256"
        }
      ],
      "name": "ownerOf",
      "outputs": [
        {
          "internalType": "address",
          "name": "",
          "type": "address"
        }
      ],
      "stateMutability": "view",
      "type": "function"
    },
    {
      "inputs": [
        {
          "internalType": "address",
          "name": "from",
          "type": "address"
        },
        {
          "internalType": "address",
          "name": "to",
          "type": "address"
        },
        {
          "internalType": "uint256",
          "name": "tokenId",
          "type": "uint256"
        }
      ],
      "name": "safeTransferFrom",
      "outputs": [],
      "stateMutability": "nonpayable",
      "type": "function"
    },
    {
      "inputs": [
        {
          "internalType": "address",
          "name": "from",
          "type": "address"
        },
        {
          "internalType": "address",
          "name": "to",
          "type": "address"
        },
        {
          "internalType": "uint256",
          "name": "tokenId",
          "type": "uint256"
        },
        {
          "internalType": "bytes",
          "name": "data",
          "type": "bytes"
        }
      ],
      "name": "safeTransferFrom",
      "outputs": [],
      "stateMutability": "nonpayable",
      "type": "function"
    },
    {
      "inputs": [],
      "name": "sbtFactory",
      "outputs": [
        {
          "internalType": "address",
          "name": "",
          "type": "address"
        }
      ],
      "stateMutability": "view",
      "type": "function"
    },
    {
      "inputs": [
        {
          "internalType": "address",
          "name": "operator",
          "type": "address"
        },
        {
          "internalType": "bool",
          "name": "approved",
          "type": "bool"
        }
      ],
      "name": "setApprovalForAll",
      "outputs": [],
      "stateMutability": "nonpayable",
      "type": "function"
    },
    {
      "inputs": [
        {
          "internalType": "bytes4",
          "name": "interfaceId",
          "type": "bytes4"
        }
      ],
      "name": "supportsInterface",
      "outputs": [
        {
          "internalType": "bool",
          "name": "",
          "type": "bool"
        }
      ],
      "stateMutability": "view",
      "type": "function"
    },
    {
      "inputs": [],
      "name": "symbol",
      "outputs": [
        {
          "internalType": "string",
          "name": "",
          "type": "string"
        }
      ],
      "stateMutability": "view",
      "type": "function"
    },
    {
      "inputs": [
        {
          "internalType": "uint256",
          "name": "index",
          "type": "uint256"
        }
      ],
      "name": "tokenByIndex",
      "outputs": [
        {
          "internalType": "uint256",
          "name": "",
          "type": "uint256"
        }
      ],
      "stateMutability": "view",
      "type": "function"
    },
    {
      "inputs": [
        {
          "internalType": "address",
          "name": "owner",
          "type": "address"
        },
        {
          "internalType": "uint256",
          "name": "index",
          "type": "uint256"
        }
      ],
      "name": "tokenOfOwnerByIndex",
      "outputs": [
        {
          "internalType": "uint256",
          "name": "",
          "type": "uint256"
        }
      ],
      "stateMutability": "view",
      "type": "function"
    },
    {
      "inputs": [
        {
          "internalType": "uint256",
          "name": "tokenId",
          "type": "uint256"
        }
      ],
      "name": "tokenURI",
      "outputs": [
        {
          "internalType": "string",
          "name": "",
          "type": "string"
        }
      ],
      "stateMutability": "view",
      "type": "function"
    },
    {
      "inputs": [],
      "name": "totalSupply",
      "outputs": [
        {
          "internalType": "uint256",
          "name": "",
          "type": "uint256"
        }
      ],
      "stateMutability": "view",
      "type": "function"
    },
    {
      "inputs": [
        {
          "internalType": "address",
          "name": "from",
          "type": "address"
        },
        {
          "internalType": "address",
          "name": "to",
          "type": "address"
        },
        {
          "internalType": "uint256",
          "name": "tokenId",
          "type": "uint256"
        }
      ],
      "name": "transferFrom",
      "outputs": [],
      "stateMutability": "nonpayable",
      "type": "function"
    }
  ],
  "bytecode": "0x60c06040523480156200001157600080fd5b5060405162001ebc38038062001ebc83398101604081905262000034916200020b565b8351849084906200004d90600090602085019062000098565b5080516200006390600190602084019062000098565b505050608085905281516200008090600a90602085019062000098565b506001600160a01b031660a052506200030892505050565b828054620000a690620002cb565b90600052602060002090601f016020900481019282620000ca576000855562000115565b82601f10620000e557805160ff191683800117855562000115565b8280016001018555821562000115579182015b8281111562000115578251825591602001919060010190620000f8565b506200012392915062000127565b5090565b5b8082111562000123576000815560010162000128565b634e487b7160e01b600052604160045260246000fd5b600082601f8301126200016657600080fd5b81516001600160401b03808211156200018357620001836200013e565b604051601f8301601f19908116603f01168101908282118183101715620001ae57620001ae6200013e565b81604052838152602092508683858801011115620001cb57600080fd5b600091505b83821015620001ef5785820183015181830184015290820190620001d0565b83821115620002015760008385830101525b9695505050505050565b600080600080600060a086880312156200022457600080fd5b855160208701519095506001600160401b03808211156200024457600080fd5b6200025289838a0162000154565b955060408801519150808211156200026957600080fd5b6200027789838a0162000154565b945060608801519150808211156200028e57600080fd5b506200029d8882890162000154565b608088015190935090506001600160a01b0381168114620002bd57600080fd5b809150509295509295909350565b600181811c90821680620002e057607f821691505b602082108114156200030257634e487b7160e01b600052602260045260246000fd5b50919050565b60805160a051611b806200033c600039600081816102d001526107be015260008181610242015261080b0152611b806000f3fe608060405234801561001057600080fd5b50600436106101765760003560e01c80634f6ccce7116100d857806397fb22541161008c578063c87b56dd11610066578063c87b56dd14610318578063d547cfb71461032b578063e985e9c51461033357600080fd5b806397fb2254146102cb578063a22cb465146102f2578063b88d4fde1461030557600080fd5b80636a627842116100bd5780636a6278421461029d57806370a08231146102b057806395d89b41146102c357600080fd5b80634f6ccce7146102775780636352211e1461028a57600080fd5b806318160ddd1161012f5780632f745c59116101145780632f745c591461022a578063355274ea1461023d57806342842e0e1461026457600080fd5b806318160ddd1461020f57806323b872dd1461021757600080fd5b806306fdde031161016057806306fdde03146101ba578063081812fc146101cf578063095ea7b3146101fa57600080fd5b80629a9b7b1461017b57806301ffc9a714610197575b600080fd5b610184600b5481565b6040519081526020015b60405180910390f35b6101aa6101a5366004611774565b61036f565b604051901515815260200161018e565b6101c261039a565b60405161018e91906117e9565b6101e26101dd3660046117fc565b61042c565b6040516001600160a01b03909116815260200161018e565b61020d610208366004611831565b610453565b005b600854610184565b61020d61022536600461185b565b61056e565b610184610238366004611831565b6105e5565b6101847f000000000000000000000000000000000000000000000000000000000000000081565b61020d61027236600461185b565b61068d565b6101846102853660046117fc565b6106a8565b6101e26102983660046117fc565b61074c565b6101846102ab366004611897565b6107b1565b6101846102be366004611897565b61083e565b6101c26108d8565b6101e27f000000000000000000000000000000000000000000000000000000000000000081565b61020d6103003660046118b2565b6108e7565b61020d610313366004611904565b6108f6565b6101c26103263660046117fc565b610974565b6101c26109db565b6101aa6103413660046119e0565b6001600160a01b03918216600090815260056020908152604080832093909416825291909152205460ff1690565b60006001600160e01b0319821663780e9d6360e01b1480610394575061039482610a69565b92915050565b6060600080546103a990611a13565b80601f01602080910402602001604051908101604052809291908181526020018280546103d590611a13565b80156104225780601f106103f757610100808354040283529160200191610422565b820191906000526020600020905b81548152906001019060200180831161040557829003601f168201915b5050505050905090565b600061043782610ab9565b506000908152600460205260409020546001600160a01b031690565b600061045e8261074c565b9050806001600160a01b0316836001600160a01b031614156104d15760405162461bcd60e51b815260206004820152602160248201527f4552433732313a20617070726f76616c20746f2063757272656e74206f776e656044820152603960f91b60648201526084015b60405180910390fd5b336001600160a01b03821614806104ed57506104ed8133610341565b61055f5760405162461bcd60e51b815260206004820152603d60248201527f4552433732313a20617070726f76652063616c6c6572206973206e6f7420746f60448201527f6b656e206f776e6572206f7220617070726f76656420666f7220616c6c00000060648201526084016104c8565b6105698383610b20565b505050565b6105783382610b9b565b6105da5760405162461bcd60e51b815260206004820152602d60248201527f4552433732313a2063616c6c6572206973206e6f7420746f6b656e206f776e6560448201526c1c881bdc88185c1c1c9bdd9959609a1b60648201526084016104c8565b610569838383610c1a565b60006105f08361083e565b82106106645760405162461bcd60e51b815260206004820152602b60248201527f455243373231456e756d657261626c653a206f776e657220696e646578206f7560448201527f74206f6620626f756e647300000000000000000000000000000000000000000060648201526084016104c8565b506001600160a01b03919091166000908152600660209081526040808320938352929052205490565b610569838383604051806020016040528060008152506108f6565b60006106b360085490565b82106107275760405162461bcd60e51b815260206004820152602c60248201527f455243373231456e756d657261626c653a20676c6f62616c20696e646578206f60448201527f7574206f6620626f756e6473000000000000000000000000000000000000000060648201526084016104c8565b6008828154811061073a5761073a611a4e565b90600052602060002001549050919050565b6000818152600260205260408120546001600160a01b0316806103945760405162461bcd60e51b815260206004820152601860248201527f4552433732313a20696e76616c696420746f6b656e204944000000000000000060448201526064016104c8565b6000336001600160a01b037f000000000000000000000000000000000000000000000000000000000000000016146107e857600080fd5b600b8054600091826107f983611a7a565b9190505590506108098382610e14565b7f000000000000000000000000000000000000000000000000000000000000000061083360085490565b111561039457600080fd5b60006001600160a01b0382166108bc5760405162461bcd60e51b815260206004820152602960248201527f4552433732313a2061646472657373207a65726f206973206e6f74206120766160448201527f6c6964206f776e6572000000000000000000000000000000000000000000000060648201526084016104c8565b506001600160a01b031660009081526003602052604090205490565b6060600180546103a990611a13565b6108f2338383610e2e565b5050565b6109003383610b9b565b6109625760405162461bcd60e51b815260206004820152602d60248201527f4552433732313a2063616c6c6572206973206e6f7420746f6b656e206f776e6560448201526c1c881bdc88185c1c1c9bdd9959609a1b60648201526084016104c8565b61096e84848484610efd565b50505050565b606061097f82610ab9565b6000610989610f7b565b905060008151116109a957604051806020016040528060008152506109d4565b806109b384610f8a565b6040516020016109c4929190611a95565b6040516020818303038152906040525b9392505050565b600a80546109e890611a13565b80601f0160208091040260200160405190810160405280929190818152602001828054610a1490611a13565b8015610a615780601f10610a3657610100808354040283529160200191610a61565b820191906000526020600020905b815481529060010190602001808311610a4457829003601f168201915b505050505081565b60006001600160e01b031982166380ac58cd60e01b1480610a9a57506001600160e01b03198216635b5e139f60e01b145b8061039457506301ffc9a760e01b6001600160e01b0319831614610394565b6000818152600260205260409020546001600160a01b0316610b1d5760405162461bcd60e51b815260206004820152601860248201527f4552433732313a20696e76616c696420746f6b656e204944000000000000000060448201526064016104c8565b50565b6000818152600460205260409020805473ffffffffffffffffffffffffffffffffffffffff19166001600160a01b0384169081179091558190610b628261074c565b6001600160a01b03167f8c5be1e5ebec7d5bd14f71427d1e84f3dd0314c0f7b2291e5b200ac8c7c3b92560405160405180910390a45050565b600080610ba78361074c565b9050806001600160a01b0316846001600160a01b03161480610bee57506001600160a01b0380821660009081526005602090815260408083209388168352929052205460ff165b80610c125750836001600160a01b0316610c078461042c565b6001600160a01b0316145b949350505050565b826001600160a01b0316610c2d8261074c565b6001600160a01b031614610c915760405162461bcd60e51b815260206004820152602560248201527f4552433732313a207472616e736665722066726f6d20696e636f72726563742060448201526437bbb732b960d91b60648201526084016104c8565b6001600160a01b038216610cf35760405162461bcd60e51b8152602060048201526024808201527f4552433732313a207472616e7366657220746f20746865207a65726f206164646044820152637265737360e01b60648201526084016104c8565b610d008383836001611034565b826001600160a01b0316610d138261074c565b6001600160a01b031614610d775760405162461bcd60e51b815260206004820152602560248201527f4552433732313a207472616e736665722066726f6d20696e636f72726563742060448201526437bbb732b960d91b60648201526084016104c8565b6000818152600460209081526040808320805473ffffffffffffffffffffffffffffffffffffffff199081169091556001600160a01b0387811680865260038552838620805460001901905590871680865283862080546001019055868652600290945282852080549092168417909155905184937fddf252ad1be2c89b69c2b068fc378daa952ba7f163c4a11628f55a4df523b3ef91a4505050565b6108f2828260405180602001604052806000815250611170565b816001600160a01b0316836001600160a01b03161415610e905760405162461bcd60e51b815260206004820152601960248201527f4552433732313a20617070726f766520746f2063616c6c65720000000000000060448201526064016104c8565b6001600160a01b03838116600081815260056020908152604080832094871680845294825291829020805460ff191686151590811790915591519182527f17307eab39ab6107e8899845ad3d59bd9653f200f220920489ca2b5937696c31910160405180910390a3505050565b610f08848484610c1a565b610f14848484846111ee565b61096e5760405162461bcd60e51b815260206004820152603260248201527f4552433732313a207472616e7366657220746f206e6f6e20455243373231526560448201527131b2b4bb32b91034b6b83632b6b2b73a32b960711b60648201526084016104c8565b6060600a80546103a990611a13565b60606000610f9783611346565b600101905060008167ffffffffffffffff811115610fb757610fb76118ee565b6040519080825280601f01601f191660200182016040528015610fe1576020820181803683370190505b5090508181016020015b600019017f3031323334353637383961626364656600000000000000000000000000000000600a86061a8153600a85049450846110275761102c565b610feb565b509392505050565b60018111156110ab5760405162461bcd60e51b815260206004820152603560248201527f455243373231456e756d657261626c653a20636f6e736563757469766520747260448201527f616e7366657273206e6f7420737570706f72746564000000000000000000000060648201526084016104c8565b816001600160a01b0385166111075761110281600880546000838152600960205260408120829055600182018355919091527ff3f7a9fe364faab93b216da50a3214154f22a0a2b415b23a84c8169e8b636ee30155565b61112a565b836001600160a01b0316856001600160a01b03161461112a5761112a8582611428565b6001600160a01b03841661114657611141816114c5565b611169565b846001600160a01b0316846001600160a01b031614611169576111698482611574565b5050505050565b61117a83836115b8565b61118760008484846111ee565b6105695760405162461bcd60e51b815260206004820152603260248201527f4552433732313a207472616e7366657220746f206e6f6e20455243373231526560448201527131b2b4bb32b91034b6b83632b6b2b73a32b960711b60648201526084016104c8565b60006001600160a01b0384163b1561133b57604051630a85bd0160e11b81526001600160a01b0385169063150b7a0290611232903390899088908890600401611ac4565b602060405180830381600087803b15801561124c57600080fd5b505af192505050801561127c575060408051601f3d908101601f1916820190925261127991810190611b00565b60015b611321573d8080156112aa576040519150601f19603f3d011682016040523d82523d6000602084013e6112af565b606091505b5080516113195760405162461bcd60e51b815260206004820152603260248201527f4552433732313a207472616e7366657220746f206e6f6e20455243373231526560448201527131b2b4bb32b91034b6b83632b6b2b73a32b960711b60648201526084016104c8565b805181602001fd5b6001600160e01b031916630a85bd0160e11b149050610c12565b506001949350505050565b6000807a184f03e93ff9f4daa797ed6e38ed64bf6a1f010000000000000000831061138f577a184f03e93ff9f4daa797ed6e38ed64bf6a1f010000000000000000830492506040015b6d04ee2d6d415b85acef810000000083106113bb576d04ee2d6d415b85acef8100000000830492506020015b662386f26fc1000083106113d957662386f26fc10000830492506010015b6305f5e10083106113f1576305f5e100830492506008015b612710831061140557612710830492506004015b60648310611417576064830492506002015b600a83106103945760010192915050565b600060016114358461083e565b61143f9190611b1d565b600083815260076020526040902054909150808214611492576001600160a01b03841660009081526006602090815260408083208584528252808320548484528184208190558352600790915290208190555b5060009182526007602090815260408084208490556001600160a01b039094168352600681528383209183525290812055565b6008546000906114d790600190611b1d565b600083815260096020526040812054600880549394509092849081106114ff576114ff611a4e565b90600052602060002001549050806008838154811061152057611520611a4e565b600091825260208083209091019290925582815260099091526040808220849055858252812055600880548061155857611558611b34565b6001900381819060005260206000200160009055905550505050565b600061157f8361083e565b6001600160a01b039093166000908152600660209081526040808320868452825280832085905593825260079052919091209190915550565b6001600160a01b03821661160e5760405162461bcd60e51b815260206004820181905260248201527f4552433732313a206d696e7420746f20746865207a65726f206164647265737360448201526064016104c8565b6000818152600260205260409020546001600160a01b0316156116735760405162461bcd60e51b815260206004820152601c60248201527f4552433732313a20746f6b656e20616c7265616479206d696e7465640000000060448201526064016104c8565b611681600083836001611034565b6000818152600260205260409020546001600160a01b0316156116e65760405162461bcd60e51b815260206004820152601c60248201527f4552433732313a20746f6b656e20616c7265616479206d696e7465640000000060448201526064016104c8565b6001600160a01b0382166000818152600360209081526040808320805460010190558483526002909152808220805473ffffffffffffffffffffffffffffffffffffffff19168417905551839291907fddf252ad1be2c89b69c2b068fc378daa952ba7f163c4a11628f55a4df523b3ef908290a45050565b6001600160e01b031981168114610b1d57600080fd5b60006020828403121561178657600080fd5b81356109d48161175e565b60005b838110156117ac578181015183820152602001611794565b8381111561096e5750506000910152565b600081518084526117d5816020860160208601611791565b601f01601f19169290920160200192915050565b6020815260006109d460208301846117bd565b60006020828403121561180e57600080fd5b5035919050565b80356001600160a01b038116811461182c57600080fd5b919050565b6000806040838503121561184457600080fd5b61184d83611815565b946020939093013593505050565b60008060006060848603121561187057600080fd5b61187984611815565b925061188760208501611815565b9150604084013590509250925092565b6000602082840312156118a957600080fd5b6109d482611815565b600080604083850312156118c557600080fd5b6118ce83611815565b9150602083013580151581146118e357600080fd5b809150509250929050565b634e487b7160e01b600052604160045260246000fd5b6000806000806080858703121561191a57600080fd5b61192385611815565b935061193160208601611815565b925060408501359150606085013567ffffffffffffffff8082111561195557600080fd5b818701915087601f83011261196957600080fd5b81358181111561197b5761197b6118ee565b604051601f8201601f19908116603f011681019083821181831017156119a3576119a36118ee565b816040528281528a60208487010111156119bc57600080fd5b82602086016020830137600060208483010152809550505050505092959194509250565b600080604083850312156119f357600080fd5b6119fc83611815565b9150611a0a60208401611815565b90509250929050565b600181811c90821680611a2757607f821691505b60208210811415611a4857634e487b7160e01b600052602260045260246000fd5b50919050565b634e487b7160e01b600052603260045260246000fd5b634e487b7160e01b600052601160045260246000fd5b6000600019821415611a8e57611a8e611a64565b5060010190565b60008351611aa7818460208801611791565b835190830190611abb818360208801611791565b01949350505050565b60006001600160a01b03808716835280861660208401525083604083015260806060830152611af660808301846117bd565b9695505050505050565b600060208284031215611b1257600080fd5b81516109d48161175e565b600082821015611b2f57611b2f611a64565b500390565b634e487b7160e01b600052603160045260246000fdfea26469706673582212207168cc9c0ab369dc33c2e0c26f23082b8a121d2ae0f5aa2d8daeed9e4a60478064736f6c63430008090033",
  "linkReferences": {},
  "deployedLinkReferences": {}
}